{
  "transactions": [
    {
      "hash": "0xd0a3ecc75081e74110f6ff66190f42d242fe354dda13af3b3ec264fd379b02f0",
      "transactionType": "CALL",
      "contractName": null,
      "contractAddress": "0x779877a7b0d9e8603169ddbd7836e478b4624789",
      "function": "transferAndCall(address,uint256,bytes)",
      "arguments": [
        "0x9DdfaCa8183c41ad55329BdeeD9F6A8d53168B1B",
        "3000000000000000000",
        "0xa3428e9668db2f8ddbf4696b75991fae8087bc18e20d4f4bc64bab239464d225"
      ],
      "transaction": {
        "from": "0x188a278f1e94b3fb39df76e07421f17cb9092a8d",
        "to": "0x779877a7b0d9e8603169ddbd7836e478b4624789",
        "gas": "0x1c1ff",
        "value": "0x0",
        "input": "0x4000aea00000000000000000000000009ddfaca8183c41ad55329bdeed9f6a8d53168b1b00000000000000000000000000000000000000000000000029a2241af62c000000000000000000000000000000000000000000000000000000000000000000600000000000000000000000000000000000000000000000000000000000000020a3428e9668db2f8ddbf4696b75991fae8087bc18e20d4f4bc64bab239464d225",
        "nonce": "0x23",
        "chainId": "0xaa36a7"
      },
      "additionalContracts": [],
      "isFixedGasLimit": false
    }
  ],
  "receipts": [
    {
      "status": "0x1",
      "cumulativeGasUsed": "0xb177f9",
      "logs": [
        {
          "address": "0x779877a7b0d9e8603169ddbd7836e478b4624789",
          "topics": [
            "0xddf252ad1be2c89b69c2b068fc378daa952ba7f163c4a11628f55a4df523b3ef",
            "0x000000000000000000000000188a278f1e94b3fb39df76e07421f17cb9092a8d",
            "0x0000000000000000000000009ddfaca8183c41ad55329bdeed9f6a8d53168b1b"
          ],
          "data": "0x00000000000000000000000000000000000000000000000029a2241af62c0000",
          "blockHash": "0xc38a1a7dd1fdd3f150a5649504b1604a835389f26ee3afdef4570b7b63a9033c",
          "blockNumber": "0x6cb62c",
          "transactionHash": "0xd0a3ecc75081e74110f6ff66190f42d242fe354dda13af3b3ec264fd379b02f0",
          "transactionIndex": "0x161",
          "logIndex": "0x36",
          "removed": false
        },
        {
          "address": "0x779877a7b0d9e8603169ddbd7836e478b4624789",
          "topics": [
            "0xe19260aff97b920c7df27010903aeb9c8d2be5d310a2c67824cf3f15396e4c16",
            "0x000000000000000000000000188a278f1e94b3fb39df76e07421f17cb9092a8d",
            "0x0000000000000000000000009ddfaca8183c41ad55329bdeed9f6a8d53168b1b"
          ],
          "data": "0x00000000000000000000000000000000000000000000000029a2241af62c000000000000000000000000000000000000000000000000000000000000000000400000000000000000000000000000000000000000000000000000000000000020a3428e9668db2f8ddbf4696b75991fae8087bc18e20d4f4bc64bab239464d225",
          "blockHash": "0xc38a1a7dd1fdd3f150a5649504b1604a835389f26ee3afdef4570b7b63a9033c",
          "blockNumber": "0x6cb62c",
          "transactionHash": "0xd0a3ecc75081e74110f6ff66190f42d242fe354dda13af3b3ec264fd379b02f0",
          "transactionIndex": "0x161",
          "logIndex": "0x37",
          "removed": false
        },
        {
          "address": "0x9ddfaca8183c41ad55329bdeed9f6a8d53168b1b",
          "topics": [
            "0x1ced9348ff549fceab2ac57cd3a9de38edaaab274b725ee82c23e8fc8c4eec7a",
            "0xa3428e9668db2f8ddbf4696b75991fae8087bc18e20d4f4bc64bab239464d225"
          ],
          "data": "0x000000000000000000000000000000000000000000000000000000000000000000000000000000000000000000000000000000000000000029a2241af62c0000",
          "blockHash": "0xc38a1a7dd1fdd3f150a5649504b1604a835389f26ee3afdef4570b7b63a9033c",
          "blockNumber": "0x6cb62c",
          "transactionHash": "0xd0a3ecc75081e74110f6ff66190f42d242fe354dda13af3b3ec264fd379b02f0",
          "transactionIndex": "0x161",
          "logIndex": "0x38",
          "removed": false
        }
      ],
      "logsBloom": "0x00000004000000000000000000000000000001000020000000000000020000000000000000000000000000000000000000000000000000000000000000000000000000001000000000000008000000000000002000000000000020000020000808000000000000000000000000000000000000200000000000000010000040000000000000000000000000010000800000000020000000020000000000000000000000000000000000000000010000000000000000000000000004000000000000000002000000000000000000000000000000000000000100000000000000000010000000000000800000000000000000000000000000000000000000000000",
      "type": "0x2",
      "transactionHash": "0xd0a3ecc75081e74110f6ff66190f42d242fe354dda13af3b3ec264fd379b02f0",
      "transactionIndex": "0x161",
      "blockHash": "0xc38a1a7dd1fdd3f150a5649504b1604a835389f26ee3afdef4570b7b63a9033c",
      "blockNumber": "0x6cb62c",
      "gasUsed": "0x133b1",
      "effectiveGasPrice": "0x50f5331b1",
      "from": "0x188a278f1e94b3fb39df76e07421f17cb9092a8d",
      "to": "0x779877a7b0d9e8603169ddbd7836e478b4624789",
      "contractAddress": null
    }
  ],
  "libraries": [],
  "pending": [],
  "returns": {},
  "timestamp": 1732216805,
  "chain": 11155111,
  "commit": "ee64b2a"
}